:020000040000FA
:100000000C945D000C9485000C9485000C94850084
:100010000C9485000C9485000C9485000C9485004C
:100020000C9485000C9485000C9485000C9485003C
:100030000C9485000C9485000C9485000C9485002C
:100040000C9402030C9485000C9485000C9485009C
:100050000C9485000C9485000C9485000C9485000C
:100060000C9485000C9485000000000024002700FB
:100070002A0000000000250028002B0004040404CE
:100080000404040402020202020203030303030342
:10009000010204081020408001020408102001021F
:1000A00004081020000000080002010000030407FB
:1000B0000000000000000000CE0411241FBECFEF9E
:1000C000D8E0DEBFCDBF11E0A0E0B1E0E8EEFAE09D
:1000D00002C005900D92AA3CB107D9F721E0AAEC25
:1000E000B1E001C01D92AB3EB207E1F710E0CDE5F3
:1000F000D0E004C02197FE010E946C05CC35D107E9
:10010000C9F70E944C030C9472050C94000090E017
:10011000FC01EC55FF4F2491FC01E057FF4F349157
:10012000FC01E458FF4FE491EE23C9F0222339F09B
:10013000233001F1A8F4213019F1223029F1F0E047
:10014000EE0FFF1FEE58FF4FA591B4918FB7F894B3
:10015000EC91611126C030953E233C938FBF0895EA
:100160002730A9F02830C9F0243049F78091800069
:100170008F7D03C0809180008F7780938000DFCFD8
:1001800084B58F7784BDDBCF84B58F7DFBCF809125
:10019000B0008F778093B000D2CF8091B0008F7D78
:1001A000F9CF3E2BDACFCF93DF9390E0FC01E057FD
:1001B000FF4F249184589F4FFC0184918823D1F0F4
:1001C00090E0880F991FFC01E859FF4FA591B49169
:1001D000FC01EE58FF4FC591D49161110EC09FB73D
:1001E000F8948C91E22FE0958E238C932881E22362
:1001F000E8839FBFDF91CF9108958FB7F894EC917A
:10020000E22BEC938FBFF6CF1F93CF93DF93182F82
:10021000EB0161E00E94D300209739F460E0812F68
:10022000DF91CF911F910C948700CF3FD10511F43E
:1002300061E0F5CFE12FF0E0EC55FF4FE491E330C2
:1002400031F140F4E130B1F0E230E1F0C038D105F5
:100250007CF7E4CFE73029F1E83059F1E430B1F729
:1002600080918000806280938000D0938B00C09347
:100270008A0004C084B5806884BDC7BDDF91CF917A
:100280001F91089584B5806284BDC8BDF7CF809169
:100290008000806880938000D0938900C09388009C
:1002A000EDCF8091B00080688093B000C093B30020
:1002B000E5CF8091B00080628093B000C093B4001D
:1002C000DDCFAF92BF92CF92DF92EF92FF920F936A
:1002D0001F93CF93DF936C017B018B01040F151FDC
:1002E000EB015E01AE18BF08C017D10759F0699144
:1002F000D601ED91FC910190F081E02DC6010995A8
:10030000892B79F7C501DF91CF911F910F91FF9054
:10031000EF90DF90CF90BF90AF900895089590E058
:1003200080E00895FC0101900020E9F73197AF01CA
:10033000481B590BBC0183ED91E00C946101CF93F4
:10034000DF930E949201EC018CE091E00E94920107
:100350008C0F9D1FDF91CF910895CF93DF93EC0118
:1003600060E08E810E94870061E08E810E9487009C
:1003700060E08E810E9487008BE891E00197F1F7A1
:10038000DF91CF910895CF92DF92EF92FF920F937A
:100390001F93CF93DF936C017C0187E0E80EF11C83
:1003A000D0E0C0E0062F10E0B8010C2E02C0759519
:1003B00067950A94E2F76170F70181917F010E94CD
:1003C00087002196C430D10579F7C601DF91CF911E
:1003D0001F910F91FF90EF90DF90CF900C94AD01A3
:1003E000CF92DF92EF92FF920F931F93CF93DF9301
:1003F000EC01F62E642F8C810E9487008D818F3F47
:1004000019F060E00E9487000F2D10E08F8584FFB7
:1004100025C06E0187E0C80ED11CF12CE12CB8017B
:100420000E2C02C0759567950A94E2F76170F6018B
:1004300081916F010E948700FFEFEF1AFF0A88E0A9
:10044000E816F10461F7CE01DF91CF911F910F9172
:10045000FF90EF90DF90CF900C94AD01B80184E055
:10046000759567958A95E1F7CE010E94C3016F2DBE
:10047000CE01DF91CF911F910F91FF90EF90DF9010
:10048000CF900C94C30140E0682F83ED91E00C9471
:10049000F001CF93DF93613029F09091E2019860F1
:1004A0009093E2016093E6011092E70190E490934B
:1004B000E8018093E901805C8093EA0161E080912A
:1004C000D7010E94D3008091D8018F3F19F061E0DD
:1004D0000E94D30061E08091D9010E94D300C3ED56
:1004E000D1E09E01235D31408091E20184FD0BC08B
:1004F00084E090E021962817390744F461E08E816A
:100500000E94D300EECF88E090E0F4CF8BE39DE033
:100510000197F1F760E08091D7010E94870060E0C9
:100520008091D9010E9487008091D8018F3F19F0F6
:1005300060E00E9487008091E20184FD39C063E0A1
:1005400083ED91E00E94C301CBE4D6E4CE01019794
:10055000F1F763E083ED91E00E94C3012197F1F789
:1005600063E083ED91E00E94C30183E592E001978F
:10057000F1F762E083ED91E00E94C3018091E20116
:1005800080620E94430284E08093E3018CE00E9439
:10059000430281E00E9443028BE39FE10197F1F760
:1005A00082E08093E40186E0DF91CF910C944302D6
:1005B00080620E9443028BE496E40197F1F78091F8
:1005C000E20180620E94430283E592E00197F1F725
:1005D0008091E20180620E944302D0CF9091E601B7
:1005E000891710F08FEF890FE82FF0E0ED52FE4FE2
:1005F000848980680C94430241E00E94F00181E00C
:1006000090E008951F920F920FB60F9211242F932E
:100610003F938F939F93AF93BF938091CF0190911E
:10062000D001A091D101B091D2013091CE0123E04F
:10063000230F2D3758F50196A11DB11D2093CE0132
:100640008093CF019093D001A093D101B093D201B8
:100650008091CA019091CB01A091CC01B091CD01C4
:100660000196A11DB11D8093CA019093CB01A09367
:10067000CC01B093CD01BF91AF919F918F913F91EC
:100680002F910F900FBE0F901F90189526E8230F03
:100690000296A11DB11DD2CFCF93DF93CDB7DEB7A8
:1006A000A1970FB6F894DEBF0FBECDBF789484B586
:1006B000826084BD84B5816084BD85B5826085BD5E
:1006C00085B5816085BD80916E00816080936E00EC
:1006D00010928100809181008260809381008091DE
:1006E000810081608093810080918000816080938F
:1006F00080008091B10084608093B1008091B0004F
:1007000081608093B00080917A00846080937A0049
:1007100080917A00826080937A0080917A00816073
:1007200080937A0080917A00806880937A0010929A
:10073000C10061E083E00E94D30060E08EE00E948F
:10074000D30064E084E10E94490280E00E94EE024E
:100750008FE091E00E949F0181E00E94EE0284E21E
:1007600091E00E949F0144244A9483E0582E612C1A
:10077000712C9AE0892E912CA12CB12C20E0222EF4
:1007800020E0322E82E00E94EE0260E460937C0062
:1007900080917A00806480937A0080917A0086FD4F
:1007A000FCCFA0917800B09179002FEF30E00E944B
:1007B0005105A30192010E94ED04E4E6E29FC0010D
:1007C000E39F900D11246EEF70E00E943D058B01B8
:1007D00086E391E00E9492016801012E000CEE0870
:1007E000FF08F7FEB0C041E06DE283ED91E00E94AA
:1007F000F00122273327A9012C193D094E095F0971
:1008000019A2CE0181967C01CA01B901A50194010A
:100810000E940C05605DF70162937F01211531058F
:100820004105510589F7E114F10419F0C7010E944F
:10083000920187E491E00E949F0117FDA8C0011575
:100840001105B1F46FEF70E083E10E9404016FEFD6
:1008500070E082E10E9404016FEF70E081E10E948C
:10086000040183E00E94EE0289E491E00E949F016E
:10087000C80101974E97B0F470E060E083E10E94F8
:1008800004016FEF70E082E10E94040170E060E01B
:1008900081E10E94040183E00E94EE028EE591E076
:1008A0000E949F01C8014F974E97B0F46FEF70E020
:1008B00083E10E9404016FEF70E082E10E94040175
:1008C00070E060E081E10E94040183E00E94EE029A
:1008D00083E791E00E949F01C801CD974D97B0F446
:1008E0006AEA70E083E10E94040170E060E082E166
:1008F0000E9404016FEF70E081E10E94040183E037
:100900000E94EE028AE891E00E949F01C8018A5588
:100910009109099770F56FEF70E083E10E9404017F
:1009200070E060E082E10E94040170E060E081E13B
:100930000E94040183E00E94EE028FE991E00E9490
:100940009F0160E021C0A701960119A2CE01819606
:100950007C01CA01B901A50194010E940C05605DEA
:10096000F70162937F01211531054105510589F792
:100970005ACF0436110529F783E00E94EE0284EB7A
:1009800091E00E949F0161E083E00E9487002114B2
:10099000310409F4F7CE0E940000F4CEE3EDF1E05B
:1009A0001382128284E091E0918380838DE08483BE
:1009B0008FEF85838CE086838BE087838AE0808756
:1009C00089E0818788E082871386148615861686DB
:1009D000178661E080E10C944902052E97FB1EF416
:1009E00000940E94040557FD07D00E940C0507FCE7
:1009F00003D04EF40C940405509540953095219504
:100A00003F4F4F4F5F4F089590958095709561953A
:100A10007F4F8F4F9F4F0895A1E21A2EAA1BBB1B39
:100A2000FD010DC0AA1FBB1FEE1FFF1FA217B307BA
:100A3000E407F50720F0A21BB30BE40BF50B661FD0
:100A4000771F881F991F1A9469F760957095809594
:100A500090959B01AC01BD01CF010895A29FB0010B
:100A6000B39FC001A39F700D811D1124911DB29FE2
:100A7000700D811D1124911D089597FB072E16F40A
:100A8000009407D077FD09D00E94580507FC05D0D7
:100A90003EF4909581959F4F0895709561957F4F95
:100AA00008950E942E05B7FF0895821B930B0895A9
:100AB000AA1BBB1B51E107C0AA1FBB1FA617B70784
:100AC00010F0A61BB70B881F991F5A95A9F78095A0
:100AD0009095BC01CD010895EE0FFF1F0590F49194
:100AE000E02D0994F894FFCF00000000FC026101A2
:100AF0008F018E010D0A0057415445522053454E37
:100B0000534F52204953204F4E2021004D41444520
:100B10002042592059414849412E42534B005741E8
:100B2000544552204C4556454C203D3D3E20002525
:100B3000004C4544203D3E205748495445203A202A
:100B4000454D505459004C4544203D3E20475245A8
:100B5000454E203A20562E4C4F57004C4544203DE0
:100B60003E2059454C4C4F57203A204D454455495D
:100B70004D004C4544203D3E20505552504C4520A0
:100B80003A2048494748004C4544203D3E205245C4
:100B900044203A2044414E47455221005741544594
:100BA00052204C455645522046554C4C2120202081
:020BB000000043
:107E0000112484B714BE81FFF0D085E080938100F7
:107E100082E08093C00088E18093C10086E0809377
:107E2000C20080E18093C4008EE0C9D0259A86E02C
:107E300020E33CEF91E0309385002093840096BBD3
:107E4000B09BFECF1D9AA8958150A9F7CC24DD24C4
:107E500088248394B5E0AB2EA1E19A2EF3E0BF2EE7
:107E6000A2D0813461F49FD0082FAFD0023811F036
:107E7000013811F484E001C083E08DD089C08234E0
:107E800011F484E103C0853419F485E0A6D080C0E4
:107E9000853579F488D0E82EFF2485D0082F10E0AE
:107EA000102F00270E291F29000F111F8ED06801E7
:107EB0006FC0863521F484E090D080E0DECF843638
:107EC00009F040C070D06FD0082F6DD080E0C81688
:107ED00080E7D80618F4F601B7BEE895C0E0D1E017
:107EE00062D089930C17E1F7F0E0CF16F0E7DF06D8
:107EF00018F0F601B7BEE89568D007B600FCFDCFD4
:107F0000A601A0E0B1E02C9130E011968C91119780
:107F100090E0982F8827822B932B1296FA010C0160
:107F200087BEE89511244E5F5F4FF1E0A038BF0790
:107F300051F7F601A7BEE89507B600FCFDCF97BE46
:107F4000E89526C08437B1F42ED02DD0F82E2BD052
:107F50003CD0F601EF2C8F010F5F1F4F84911BD097
:107F6000EA94F801C1F70894C11CD11CFA94CF0C13
:107F7000D11C0EC0853739F428D08EE10CD085E9AC
:107F80000AD08FE07ACF813511F488E018D01DD067
:107F900080E101D065CF982F8091C00085FFFCCF94
:107FA0009093C60008958091C00087FFFCCF809118
:107FB000C00084FD01C0A8958091C6000895E0E648
:107FC000F0E098E1908380830895EDDF803219F02E
:107FD00088E0F5DFFFCF84E1DECF1F93182FE3DFCA
:107FE0001150E9F7F2DF1F91089580E0E8DFEE27F6
:047FF000FF270994CA
:027FFE00040479
:00000001FF
